:020000040800F2
:1000000000000120C5020008CB020008CF02000852
:1000100041030008450300088D03000800000000AC
:10002000000000000000000000000000D5030008F0
:10003000D903000800000000DD0300084114000897
:10004000F1030008F1030008F1030008F1030008C0
:10005000F1030008F1030008F1030008F1030008B0
:10006000F1030008F1030008F1030008F1030008A0
:10007000F1030008F1030008F1030008F103000890
:10008000F1030008F1030008F1030008000000007C
:10009000000000000000000000000000F103000864
:1000A000F1030008F1030008F1030008F103000860
:1000B000F1030008F1030008F1030008F103000850
:1000C000F1030008F1030008F1030008F103000840
:1000D000F10300086113000871130008000000001C
:1000E000F1030008F1030008F1030008000000001C
:1000F000000000000000000000000000F103000804
:1001000000000000F1030008F1030008F1030008FB
:1001100000000000000000000000000000000000DF
:10012000F1030008F1030008F1030008F1030008DF
:10013000F1030008000000000000000000000000C3
:10014000000000000000000000000000F1030008B3
:10015000F1030008F1030008F1030008811300080F
:10016000F1030008F1030008000000000000000097
:10017000000000000000000000000000000000007F
:1001800000000000F1030008000000000000000073
:10019000F103000800B583B000F046FE384B394A41
:1001A0001360394A1360394900E02146384B9942BF
:1001B0000BD20A684B6801F10C0488689842F4D9A4
:1001C0001168196004330432F8E72E4B1A68314B7A
:1001D0009A4200D0FEE72C4B1A682F4B9A42F9D175
:1001E000274B2E4A13602E4A13602E4B05E0002049
:1001F000106004329342FAD80B462B4A934204D241
:10020000194651F8082B5B68F4E7244B1B6813B9B7
:10021000234B1B6803B1FEE702F096FA694601A87A
:1002200000F094FD214C224BE41AA4100025AC42AE
:1002300014DC204C204BE41AA4100025AC4213DC43
:100240000099019801F056FD05461C4C1C4BE41A20
:10025000A410002C0EDC284600F04AFD144B53F885
:10026000253098470135E2E7134B53F8253098477E
:100270000135E3E7013C124B53F824309847E8E797
:10028000BABADECA0000002074000020F40300089F
:100290000C04000878563412325476987800002006
:1002A000240100200C0400081C0400081C040008A1
:1002B0001C0400081C0400081C0400081C0400089E
:1002C0001C04000808B5FFF765FF00BEFEE71EF03E
:1002D000040F0CBFEFF30880EFF309807146414A29
:1002E00010472DE9F04182B004468846124B5E6B00
:1002F0009F6B9D6A1B6B13F0020F03D00E4BDB6AE2
:10030000002B0CDB0D4800F033FDCDF800803B46A0
:1003100032462946204600F093FD00BEFEE74BF62C
:10032000AB6100F007FE0028ECD0034B4FF0004219
:10033000DA6202B0BDE8F08100ED00E0083A0008A2
:1003400000BEFEE71EF0040F0CBFEFF30880EFF3D2
:1003500009807146244A10472DE9F04182B00446D5
:100360008846084B5E6B9F6B9D6A074800F000FD56
:10037000CDF800803B4632462946204600F060FD1D
:1003800000BEFEE700ED00E0183A00081EF0040F82
:100390000CBFEFF30880EFF309807146134A104752
:1003A0002DE9F04182B004468846084B5E6B9F6B96
:1003B0009D6A074800F0DCFCCDF800803B463246E1
:1003C0002946204600F03CFD00BEFEE700ED00E0BF
:1003D000243A000800BEFEE700BEFEE700BEFEE7CE
:1003E00070470000E302000859030008A103000859
:0403F00000BEFEE766
:1003F400BC3B00080000002078000020BC3B000843
:1004040000000010000000107800002028010020E7
:080414000000001000000010C0
:1004200010B50446074B1868074BA3FB0030800942
:1004300000F090F8002221464FF0FF3000F044F821
:10044000002010BD0C000020D34D621008B50B4BEE
:100450001A6842F400721A601A6842F480621A60E4
:100460001A6842F480721A60032000F00FF80F201F
:10047000FFF7D6FF02F070F9002008BD003C0240F3
:10048000014B1868704700BF1C01002010B50446DE
:10049000C31E042B0FD80A4AD36823F4E0631B045D
:1004A0001B0C240204F4E064234343F0BF6343F4D1
:1004B0000033D36010BDA421024800F04FFCEAE7EE
:1004C00000ED00E03838000870B505460C461646C9
:1004D0000F2A25D80F2C28D81B4BDB68C3F3022327
:1004E000C3F10702042A28BF0422191D062921D9B5
:1004F000033B4FF0FF3101FA02F224EA02049C4070
:1005000001FA03F326EA03063443002D14DB240129
:10051000E4B205F1604505F5614585F8004370BD1D
:10052000BC210A4800F01AFCD4E7BD21074800F0BE
:1005300015FCD1E70023DCE705F00F052401E4B248
:10054000034B5C55EBE700BF00ED00E038380008D6
:1005500014ED00E00138B0F1807F0AD2064B5860FC
:10056000064AF02182F823100020986007221A60C2
:1005700070470120704700BF10E000E000ED00E090
:1005800010B50446042800D038B9042C0BD0094A11
:10059000136823F00403136010BD40F2B311064842
:1005A00000F0DCFBF1E7034A136843F00403136037
:1005B000F2E700BF10E000E03838000830B583B043
:1005C000044603680F2B29D8236813F0010F3DD090
:1005D0006368012B01D9052B25D1A34B9B6803F040
:1005E0000C03042B29D0A04B9B6803F00C03082BB1
:1005F0001ED022799D4B1A706368002B50D0FFF7F4
:100600003FFF0546984B1B6813F4003F1ED1FFF7D0
:1006100037FF401B6428F5D90320E3E1F521944816
:1006200000F09CFBD0E7FA21914800F097FBD4E75B
:100630008D4B5B6813F4800FDBD08B4B1B6813F47E
:10064000003F03D06368002B00F0C981236813F0DA
:10065000020F5DD0E368012B31D823691F2B34D8FA
:10066000814B9B6813F00C0F3AD07F4B9B6803F0D3
:100670000C03082B2FD0E368002B74D07D4B012294
:100680001A60FFF7FDFE0546774B1B6813F0020F5B
:100690005AD1FFF7F5FE401B0228F5D90320A1E14E
:1006A000FFF7EEFE0546704B1B6813F4003FCDD0FC
:1006B000FFF7E6FE401B6428F5D9032092E14FF4D2
:1006C00096716B4800F04AFBC7E740F22D1168486D
:1006D00000F044FBC4E7644B5B6813F4800FCAD19D
:1006E000614B1B6813F0020F04D0E368012B01D0AB
:1006F000012077E15C48036823F0F8032169F822C0
:1007000092FAA2F2B2FA82F201FA02F21343036001
:10071000236813F0080F50D06369012B35D8636943
:10072000002B38D0544B01221A60FFF7A9FE054672
:100730004D4B5B6F13F0020F3FD1FFF7A1FE401B43
:100740000228F5D903204DE14748036823F0F80358
:100750002169F82292FAA2F2B2FA82F201FA02F2C6
:1007600013430360D4E7434B00221A60FFF788FE6F
:1007700005463D4B1B6813F0020FC9D0FFF780FE02
:10078000401B0228F5D903202CE140F26D113848B6
:1007900000F0E4FAC3E7384B00221A60FFF770FE5E
:1007A0000546314B5B6F13F0020F06D0FFF768FE72
:1007B000401B0228F5D9032014E1236813F0040F2D
:1007C00060D0A368012B01D9052B1FD10023019311
:1007D000254B1A6C42F080521A641B6C03F0805354
:1007E0000193019B254A136843F480731360FFF75C
:1007F00047FE0546214B1B6813F4807F0CD1FFF7A1
:100800003FFE401B0228F5D90320EBE040F2971190
:10081000174800F0A3FAD9E7227A194B1A70A36897
:1008200083B1FFF72DFE05460F4B1B6F13F0020F30
:1008300028D1FFF725FE401B41F288339842F3D9B7
:100840000320CFE0FFF71CFE0546074B1B6F13F09C
:10085000020F17D0FFF714FE401B41F28833984275
:10086000F3D90320BEE000BF003802400238024046
:100870007C38000800004742800E4742007000406C
:1008800070380240A369022B39D8A369002B00F00D
:10089000A880564A926802F00C02082A00F0A48050
:1008A000022B40F08880E36913B1B3F5800F2CD19F
:1008B000236A3F2B2FD8636A323BB3F5BF7F30D812
:1008C000A36A022B05D0042B03D0062B01D0082BE2
:1008D0002DD1E36A043B0B2B2FD8454B00221A6025
:1008E000FFF7CEFD0546414B1B6813F0007F2AD071
:1008F000FFF7C6FD401B0228F5D9032072E04FF434
:10090000E6713C4800F02AFABFE740F2D5113948B9
:1009100000F024FACCE74FF4EB71364800F01EFAF1
:10092000C9E740F2D711334800F018FAC8E74FF48E
:10093000EC71304800F012FACBE740F2D9112D48A3
:1009400000F00CFAC9E7E369226A1343616A47F6CB
:10095000C07292FAA2F2B2FA82F201FA02F21343E0
:10096000A26A5208013A4FF4403191FAA1F1B1FA6A
:1009700081F18A401343E16A4FF0706292FAA2F269
:10098000B2FA82F201FA02F21343184A5360184B8A
:1009900001221A60FFF774FD0446144B1B6813F024
:1009A000007F06D1FFF76CFD001B0228F5D903205C
:1009B00018E0002016E00E4B00221A60FFF760FDE1
:1009C00004460A4B1B6813F0007F06D0FFF758FD62
:1009D000001B0228F5D9032004E0002002E00120DA
:1009E00000E0002003B030BD0120FBE700380240EA
:1009F000600047427C380008214B9B6803F00C03E1
:100A0000042B3AD0082B01D01E4870471C4B586865
:100A100000F03F005B6813F4800F1ED01A4AB2FB4F
:100A2000F0F2174B586847F6C073184093FAA3F3D7
:100A3000B3FA83F3D84000FB02F0114B5B6803F478
:100A400040334FF4403292FAA2F2B2FA82F2D3402B
:100A500001335B00B0FBF3F070470A4AB2FBF0F2DF
:100A6000074B586847F6C073184093FAA3F3B3FADC
:100A700083F3D84000FB02F0DFE70348704700BF74
:100A8000003802400024F40040787D0170B504462F
:100A90000D460368013B0E2B11D8072D15D88C4B42
:100AA0001B6803F00F03AB4215D2EBB2884A1370F8
:100AB000136803F00F03AB420DD0012070BD40F26C
:100AC0003721844800F04AF9E7E74FF40E71814876
:100AD00000F044F9E3E7236813F0020F18D0A3688D
:100AE0007BB1802B0DD0902B0BD0A02B09D0B02B3D
:100AF00007D0C02B05D0D02B03D0E02B01D0F02B9A
:100B000037D1754A936823F0F003A1680B439360D3
:100B1000236813F0010F73D06368032B2FD8636829
:100B2000012B32D09A1E012A36D96B4A126812F074
:100B3000020F00F0CA8068498A6822F0030213435A
:100B40008B60FFF79DFC06466368012B2BD0022BC0
:100B500038D0032B45D0604B9B6813F00C0F4FD05F
:100B6000FFF78EFC801B41F288339842F3D90320B3
:100B7000A4E740F24F21574800F0F0F8C1E740F2F7
:100B80005621544800F0EAF8C9E7534A126812F4B3
:100B9000003FD0D1012091E74F4A126812F0007F48
:100BA000C9D101208AE74C4B9B6803F00C03042B4E
:100BB00026D0FFF765FC801B41F288339842F2D9BA
:100BC00003207BE7444B9B6803F00C03082B17D0F2
:100BD000FFF756FC801B41F288339842F2D903207C
:100BE0006CE73D4B9B6803F00C030C2B08D0FFF720
:100BF00047FC801B41F288339842F2D903205DE71D
:100C0000334B1B6803F00F03AB4209D9EAB2304BF8
:100C10001A701B6803F00F03AB4201D001204DE7AF
:100C2000236813F0040F14D0E3685BB1B3F5805F61
:100C300008D0B3F5A05F05D0B3F5C05F02D0B3F51F
:100C4000E05F36D1244A936823F4E053E1680B4314
:100C50009360236813F0080F15D023695BB1B3F5D7
:100C6000805F08D0B3F5A05F05D0B3F5C05F02D0B8
:100C7000B3F5E05F23D1184A936823F460432169F8
:100C800043EAC1039360FFF7B7FE134B9B6803F081
:100C9000F003F02292FAA2F2B2FA82F2D3400F4AA3
:100CA000D35CD8400E4B18600F20FFF7B9FB002033
:100CB00004E74FF42D71074800F050F8C2E740F206
:100CC000BB21044800F04AF8D5E70120F6E600BF52
:100CD000003C02407C380008003802406C380008B4
:100CE0000C000020014B1868704700BF0C0000206A
:100CF000FEE7000008B5034800F052F80120FFF7B6
:100D0000F7FF00BFAC38000808B503460C4A12686C
:100D10005AB10B4A1068033323F003030344094A12
:100D2000934206D8064A136008BD054A0649116079
:100D3000EFE702F001F90C2303604FF0FF30F3E717
:100D40007C00002000FC002028010020012303601B
:100D5000014B0B60704700BF0400002008B50A4635
:100D60000146024800F004F8FFF7C4FFC03800084D
:100D70000FB400B583B004AB53F8042B019380216A
:100D8000064802F013F9002803DD0146034800F08D
:100D900047F803B05DF804EB04B07047840000200E
:100DA00010B5044602F0CEF80146204600F038F8AF
:100DB0000121024800F034F810BD00BF843900085A
:100DC0002DE9F04385B004460F4643560BB10E465D
:100DD0001EE0042528462146ABBE0446384605B031
:100DE000BDE8F08314F9011B04AA1A4402F8101C90
:100DF0000133AB42F6D304AA1344002203F8102CAB
:100E00004FF00408E94640464946ABBE8046761B93
:100E1000002EE3D03546102E28BF10250023E8E72A
:100E200008B5FFF7CDFF08BD08B500F093F8024AFA
:100E3000024B9A6008BD00BF0000000800ED00E012
:100E4000F8B504460D4617461E462748FFF790FFA3
:100E500021682648FFF78CFF61682548FFF788FF67
:100E6000A1682448FFF784FFE1682348FFF780FF6B
:100E700021692248FFF77CFF61692148FFF778FF6D
:100E8000A1692048FFF774FFE1691F48FFF770FF71
:100E90001E48FFF76DFF29461D48FFF769FF1D4CEF
:100EA000E16A1D48FFF764FF216B1C48FFF760FFF4
:100EB000E16B1B48FFF75CFF15F0800F0AD115F4BA
:100EC000004F0CD11748FFF753FF06991648FFF75C
:100ED0004FFFF8BD39461548FFF74AFFEFE73146A7
:100EE0001348FFF745FFEDE7EC380008FC38000831
:100EF0000C3900081C3900082C3900083C3900085E
:100F00004C3900085C3900086C3900087C3900084D
:100F10008839000800ED00E098390008A839000879
:100F2000B8390008E8390008F0390008C839000865
:100F3000D839000883691A888A4201D00020704796
:100F40000268033A012A03D8023383610120704703
:100F5000002070470C4B1A6842F001021A60002111
:100F600099601A6822F0847222F480321A60074A6B
:100F70005A601A6822F480221A60D960044B4FF03C
:100F800000629A60704700BF0038024010300024B1
:100F900000ED00E0224B9B6803F00C03042B14D0FF
:100FA000082B16D01BB11F4B1F4A1A6002E01D4BC5
:100FB0001D4A1A601A4B9B68C3F303131B4AD15C8A
:100FC000184A1368CB4013607047164B184A1A60D2
:100FD000F0E7134B5A685B6803F03F0312F4800F8D
:100FE00013D0134AB2FBF3F20D4B5B68C3F38813C3
:100FF00003FB02F30A4A5268C2F301420132520073
:10100000B3FBF2F3074A1360D4E7074AB2FBF3F2EB
:10101000034B5B68C3F3881303FB02F3EAE700BFEB
:10102000003802400C0000200024F400343A00088C
:1010300040787D0110B501283DD010B1032874D04F
:1010400010BD574B1960574BDA6842F40052DA6012
:10105000DA6808880243DA60DA68C8880243DA602E
:10106000DA6848880243DA601A69888802431A619C
:101070008C6820014C4AB2FBF0F0A40002F1B75298
:1010800002F55832B2FBF4F4642202FB1042120162
:10109000464CA4FB0242C2F3431242EA00129A6099
:1010A0008B89002BCCD03F49CA681343CB602520E5
:1010B00000F0AAFAC4E73E4B19603E4BDA6842F4EE
:1010C0000052DA60DA6808880243DA60DA68C888B1
:1010D0000243DA60DA6848880243DA601A6988886D
:1010E00002431A618C6820012F4AB2FBF0F0A40081
:1010F00002F1B75202F55832B2FBF4F4642202FB5B
:1011000010421201294CA4FB0242C2F3431242EAEC
:1011100000129A608B89002B92D02649CA6813432B
:10112000CB60262000F070FA8AE7234B1960234B2E
:10113000DA6842F40052DA60DA6808880243DA605A
:10114000DA68C8880243DA60DA6848880243DA60FD
:101150001A69888802431A618C682001124AB2FB1E
:10116000F0F0A40002F1B75202F55832B2FBF4F4E9
:10117000642202FB104212010C4CA4FB0242C2F397
:10118000431242EA00129A608B89002B3FF458AF59
:101190000A49CA681343CB60472000F035FA4FE78D
:1011A00004010020001001400024F4001F85EB51D1
:1011B00008010020004400400C0100200014014000
:1011C00001281BD010B103282DD0704722B9204B25
:1011D0001B6813F0800FFAD01E4B1B68DB88B3F539
:1011E000805F03D0C9B21A4B59607047C1F3080140
:1011F00003F1804303F580335960704722B9164BE1
:101200001B6813F0800FFAD0144B1B68DB88B3F512
:10121000805F03D0C9B2104B59607047C1F3080119
:101220000D4B5960704722B90D4B1B6813F0800FAE
:10123000FAD00C4B1B68DB88B3F5805F03D0C9B2D2
:10124000074B59607047C1F30801054B596070475F
:10125000001001400401002000440040080100206B
:10126000001401400C01002001282AD010B10328ED
:1012700048D0704721B9344B1B6813F0200FFAD0C7
:10128000324B1B68DA88B2F5805F08D05B889BB967
:1012900003F1804303F588335868C0B270475B8818
:1012A00033B903F1804303F588335868C0B27047FF
:1012B000254B5868C0B27047234B586800F07F0038
:1012C000704721B9224B1B6813F0200FFAD0214B35
:1012D0001B68DA88B2F5805F05D05B886BB91C4B60
:1012E0005868C0B270475B881BB9194B5868C0B2C8
:1012F0007047174B5868C0B27047154B586800F0DC
:101300007F00704721B9144B1B6813F0200FFAD0EF
:10131000124B1B68DA88B2F5805F05D05B886BB929
:101320000D4B5868C0B270475B881BB90A4B5868B0
:10133000C0B27047084B5868C0B27047064B586837
:1013400000F07F00704700BF001001400401002042
:101350000044004008010020001401400C0100205E
:1013600008B5024B1B681B69984708BD04010020A3
:1013700008B5024B1B681B69984708BD080100208F
:1013800008B5024B1B681B69984708BD0C0100207B
:10139000044B1A6842F004021A601A6842F0020212
:1013A0001A60704710E000E0064B1A6822F0010254
:1013B0001A600138586000229A601A6842F00102EF
:1013C0001A60704710E000E0024B1868C0F300405C
:1013D000704700BF10E000E010B5174A136823F013
:1013E0000103136001F0FCFA0022144B01F09CFC95
:1013F0000FA3D3E9002301F06DFB01F07DFD04464E
:10140000B0F1807F07D22046FFF7CEFFFFF7DCFF69
:101410000028FBD010BD00F17F4401346FF07F4005
:10142000FFF7C2FFFFF7D0FF0028FBD0EBE700BFBC
:101430000000000080846E4110E000E000408F401A
:1014400008B5034B1B6813B1014B1B68984708BDD7
:1014500010010020032822D8DFE800F0020A121A47
:101460000F480368012202FA01F119430160704735
:101470000C480368012202FA01F119430160704728
:1014800009480368012202FA01F11943016070471B
:1014900006480368012202FA01F11943016070470E
:1014A000303802403438024040380240443802406C
:1014B00001282DD010B1022840D0704711B1012968
:1014C00013D070474D4B1A6842F480321A601A6884
:1014D00022F480221A6008331A6842F001021A606E
:1014E0001A6822F002021A607047444B1A6842F4EC
:1014F00080321A601A6842F480221A6008331A682F
:1015000042F001021A601A6822F002021A60704763
:101510003A4B00221A601A6842F001021A60374BF7
:101520001B6813F0020FFAD0354B1A6822F0010243
:101530001A601A6822F002021A60704700232F49CD
:101540000B6004310B6012B1012A3FD070472D4B64
:101550001A6842F480321A601A6822F400321A6063
:101560001A6842F440521A601A6842F010021A6077
:1015700004331A681A601A6842F480521A601A68B2
:101580001A601E4A136843F4803313601B4B1B68B8
:1015900013F4003FFAD0194A136843F080731360C4
:1015A000164B1B6813F0007FFAD0164A136843F4F9
:1015B00080031360124B1A6822F001021A601A6845
:1015C00042F002021A601A681A6070470B4B1A68E0
:1015D00042F001021A601A6842F080721A60094AE9
:1015E000136823F480031360054B1A6822F001028C
:1015F0001A601A6842F002021A607047003802400E
:10160000083802400438024010B4440900F01F00BA
:10161000054951F82430012202FA00F0184341F83C
:10162000240010BC704700BF00E100E005282DD861
:10163000DFE800F0030A11181F2615480368490067
:101640008A401A43026070471248036849008A4082
:101650001A43026070471048036849008A401A43E1
:10166000026070470D48036849008A401A430260CF
:1016700070470B48036849008A401A43026070476C
:101680000848036849008A401A430260704700BF57
:10169000000002400004024000080240000C02402A
:1016A00000100240001C024005282DD8DFE800F0A1
:1016B000030A11181F261548C36849008A401A43B7
:1016C000C26070471248C36849008A401A43C2602A
:1016D00070471048C36849008A401A43C260704787
:1016E0000D48C36849008A401A43C26070470B48DE
:1016F000C36849008A401A43C26070470848C368FB
:1017000049008A401A43C260704700BF000002408F
:101710000004024000080240000C02400010024099
:10172000001C0240052828D8DFE800F003090F1547
:101730001B21134B1869C84000F001007047114B82
:101740001869C84000F0010070470F4B1869C84085
:1017500000F0010070470D4B1869C84000F001000F
:1017600070470B4B1869C84000F001007047094BE7
:101770001869C84000F0010070470020704700BFA2
:10178000000002400004024000080240000C024039
:1017900000100240001C0240012A06D0052870D823
:1017A000DFE800F03A434C555E67052869D8DFE86A
:1017B00000F0030B131B232B32484369012202FA6A
:1017C00001F11943416170472F484369012202FA30
:1017D00001F11943416170472C480368012202FA64
:1017E00001F119430160704729484369012202FA57
:1017F00001F119434161704726484369012202FA09
:1018000001F119434161704723484369012202FAFB
:1018100001F11943416170471A484369012202FAF4
:1018200001F123EA01014161704717484369012230
:1018300002FA01F123EA0101416170471748436947
:10184000012202FA01F123EA0101416170471048C7
:101850004369012202FA01F123EA01014161704763
:101860000C484369012202FA01F123EA01014161B6
:10187000704709484369012202FA01F123EA010194
:101880004161704700000240000402401408024019
:10189000000C024000100240001C02400008024000
:1018A000072936D8052879D8DFE800F0030B131B89
:1018B000232B3B48036A890002FA01F119430162B4
:1018C00070473848036A890002FA01F1194301623E
:1018D00070473548036A890002FA01F11943016231
:1018E00070473248036A890002FA01F11943016224
:1018F00070472F48036A890002FA01F11943016217
:1019000070472C48036A890002FA01F11943016209
:10191000704710B405280DD8DFE800F0030E182238
:101920002C361F4C606A01F007018B0002FA03F1AC
:101930000143616210BC70471A4C606A01F00703F2
:101940009B0002FA03F101436162F3E7164C606AFF
:1019500001F007039B0002FA03F101436162E9E72A
:10196000124C606A01F007039B0002FA03F1014385
:101970006162DFE70E4C606A01F007039B0002FA28
:1019800003F101436162D5E70A48436A01F00701A8
:10199000890002FA01F119434162CBE7704700BFA9
:1019A000000002400004024000080240000C024017
:1019B00000100240001C024008B50122FFF736FE6D
:1019C00008BD08B50122FFF7E7FE08BD08B50022F3
:1019D000FFF7E2FE08BD08B5012204210020FFF751
:1019E000DBFE0120FFF7F8FC002204211046FFF780
:1019F000D3FE08BD10B50446012206210020FFF7E2
:101A0000CBFE002205211046FFF7C6FEC4F30012EC
:101A100003210020FFF7C0FEC4F340120221002082
:101A2000FFF7BAFEC4F3801201210020FFF7B4FED5
:101A3000E20900210846FFF7AFFEFFF7CCFF0122C5
:101A400006210020FFF7A8FE002205211046FFF71F
:101A5000A3FE04F0010203210020FFF79DFEC4F362
:101A6000400202210020FFF797FEC4F3800201210B
:101A70000020FFF791FEC4F3C00200210846FFF7E3
:101A80008BFEFFF7A8FF0C20FFF7A6FC10BD10B5DA
:101A90000446002206211046FFF77EFE00220521A3
:101AA0001046FFF779FEC4F3001203210020FFF770
:101AB00073FEC4F3401202210020FFF76DFEC4F351
:101AC000801201210020FFF767FEE209002108468D
:101AD000FFF762FEFFF77FFF002206211046FFF7A7
:101AE0005BFE002205211046FFF756FE04F00102BE
:101AF00003210020FFF750FEC4F340020221002022
:101B0000FFF74AFEC4F3800201210020FFF744FEE4
:101B1000C4F3C00200210846FFF73EFEFFF75BFF5B
:101B20000C20FFF759FC002010BD08B52020FFF75E
:101B300053FC0220FFF7ABFF2820FFF7A8FF01208E
:101B4000FFF74AFC0C20FFF7A2FF0120FFF744FC3F
:101B50000120FFF79CFF0220FFF73EFC0620FFF765
:101B600096FF0720FFF738FC08BD012801D90120A6
:101B700070470F2911D808B518B1012807D00020E7
:101B800004E081F08000FFF782FF002008BD4039AB
:101B9000C8B2FFF77CFF0020F8E70120704710B5BE
:101BA000044620B9012005E0FFF724FF0134207826
:101BB0000028F9D110BD000010B584B010B1024664
:101BC000002413E03020FFF715FF20E0114BA3FBAA
:101BD0000213DB08184603EB83035900531A02462D
:101BE00004A9214401F8103C0134E4B2002AEDD1EB
:101BF000013C64B209E004AB234413F8100C30300C
:101C0000C0B2FFF7F7FE013C64B2002CF3DA04B077
:101C100010BD00BFCDCCCCCC70B5002407E00122B4
:101C20000D4B195D0D4B185DFFF700FD0134032CC2
:101C3000F5DD00240CE00A4E0A4D0022315D285DDE
:101C4000FFF7F4FC0122315D285DFFF72DFD013423
:101C5000032CF0DD70BD00BF603A00085C3A00085C
:101C6000583A0008543A0008002834D02DE9F041D1
:101C7000804664230370002512E0194B03EB8703B1
:101C80001B5D88F800300122164BD95D164BD85DDC
:101C9000FFF782FD98F80030642B1ED10135EDB2BC
:101CA000032D15D82F4600220E4B595D0E4B585D63
:101CB000FFF772FD0024032CE5D80C4B195D0C4B8B
:101CC000185DFFF72FFD0028D7D00134E4B2F2E70A
:101CD0000020BDE8F081012070470020F9E700BF37
:101CE000443A0008603A00085C3A0008583A000894
:101CF000543A000810B588B0002211460120FFF7C1
:101D0000D7FB00210846FFF7A5FB01210020FFF7C4
:101D1000A1FB05210320FFF79DFB012200210846BE
:101D2000FFF784FC012211460020FFF77FFC01220F
:101D300002210020FFF77AFC012203210020FFF797
:101D400075FC012204210020FFF770FC012205210F
:101D50000020FFF76BFC012206210020FFF766FC44
:101D600002220B210020FFF761FC02220C2100203F
:101D7000FFF75CFC08220B210020FFF791FD0822F1
:101D80000C210020FFF78CFD00210120FFF714FE3D
:101D900001210846FFF710FEFFF7FAFAFFF7C5FE2C
:101DA000FFF73AFF4FF4E13303930023ADF810300F
:101DB0000593ADF80630ADF80830ADF80A3008A943
:101DC0000C2321F81C3D0320FFF734F92DE007AB6D
:101DD0001819FFF749FF08AB234413F8043C642BA0
:101DE000F5D02A20FFF706FEFA20FFF7F5FA0134B6
:101DF000E4B2032CEBD99DF81C30312B03D19DF8B4
:101E00001D30322B1DD00120FFF741FED948FFF7CE
:101E1000C6FE00210120FFF7D4FD4FF4FA70FFF752
:101E2000DBFA00210120FFF7D1FD0120FFF72FFE93
:101E3000D148FFF7B4FE00210120FFF796FE0024F1
:101E4000D7E79DF81E30332BDDD19DF81F30342BA2
:101E5000D9D10120FFF71BFEC848FFF7A0FE0121E2
:101E60000846FFF7AEFD4FF4FA70FFF7B5FA01210F
:101E70000846FFF7ABFD05E30120FFF708FEC04869
:101E8000FFF78DFE00210120FFF76FFEBD48FFF731
:101E900086FE0A210020FFF768FEBB48FFF77FFEA1
:101EA0000A210120FFF761FEB848FFF778FE0DF127
:101EB0001B00FFF7D9FE9DF81B30642BF7D0FA20EA
:101EC000FFF78AFA9DF81B30313B032B00F2DA82D0
:101ED000DFE803F00274BADE0120FFF7D8FDAC485A
:101EE000FFF75DFE00210120FFF73FFEA948FFF745
:101EF00056FE0DF11B00FFF7B7FE9DF81B30642B5B
:101F0000F7D0FA20FFF768FA9DF81B30312B14D078
:101F1000002202210320FFF753F900223121032080
:101F2000FFF74EF9002246210320FFF749F900226E
:101F300046210320FFF744F9A4E2002201210320F7
:101F4000FFF73EF90120FFF7A2FD9348FFF727FEB8
:101F500000210120FFF709FE9048FFF720FE0DF158
:101F60001B00FFF781FE9DF81B30642BF7D0C820C3
:101F7000FFF732FA9DF81B30312B0FD000223121B0
:101F80000320FFF71DF9002246210320FFF718F96F
:101F9000002246210320FFF713F973E200223121CA
:101FA0000320FFF70DF9002246210320FFF708F96F
:101FB00000224F210320FFF703F963E20120FFF71E
:101FC00066FD7748FFF7EBFD00210120FFF7CDFD0F
:101FD0007448FFF7E4FD0DF11B00FFF745FE9DF887
:101FE0001B30642BF7D0FA20FFF7F6F99DF81B3071
:101FF000312B14D0002201210320FFF7E1F8002249
:1020000031210320FFF7DCF8002244210320FFF7F1
:10201000D7F8002246210320FFF7D2F832E200224F
:1020200001210320FFF7CCF8002231210320FFF724
:10203000C7F8002244210320FFF7C2F800224F21F5
:102040000320FFF7BDF81DE20120FFF720FD5648F1
:10205000FFF7A5FD002201210320FFF7B1F80022C0
:1020600031210320FFF7ACF8002254210320FFF7B1
:10207000A7F800224F210320FFF7A2F80021032038
:10208000FFF7F2F8FFF798FDFA20FFF7A5F9F9E15D
:102090000120FFF7FCFC3E48FFF781FD00210120F5
:1020A000FFF763FD3B48FFF77AFD0DF11B00FFF7DB
:1020B000DBFD9DF81B30642BF7D0FA20FFF78CF97D
:1020C0009DF81B30312B14D0002202210320FFF792
:1020D00077F8002231210320FFF772F8002248210F
:1020E0000320FFF76DF8002246210320FFF768F870
:1020F000C8E1002201210320FFF762F80120FFF769
:10210000C6FC2A48FFF74BFD00210120FFF72DFDFB
:102110002748FFF744FD0DF11B00FFF7A5FD9DF8D3
:102120001B30642BF7D0FA20FFF756F99DF81B30CF
:10213000312B0FD0002231210320FFF741F800227C
:1021400048210320FFF73CF8002246210320FFF737
:1021500037F897E1002231210320FFF731F8002200
:1021600048210320FFF72CF800224F210320FFF71E
:1021700027F887E1783A0008883A0008643A0008AE
:10218000C43A0008CC3A0008D43A0008DC3A000807
:10219000E83A0008F43A0008003B00080C3B00084D
:1021A000183B0008243B0008343B0008443B00086F
:1021B000503B00080120FFF76AFCCD48FFF7EFFC19
:1021C00000210120FFF7D1FCCA48FFF7E8FC0A21F3
:1021D0000020FFF7CAFCC848FFF7E1FC0DF11B0027
:1021E000FFF742FD9DF81B30642BF7D0FA20FFF774
:1021F000F3F89DF81B30322B4BD0332B00F0BB8013
:10220000312B40F03F810120FFF741FCBB48FFF735
:10221000C6FC00210120FFF7A8FCB948FFF7BFFC6E
:102220000DF11B00FFF720FD9DF81B30642BF7D04C
:10223000C820FFF7D1F89DF81B30312B14D00022B5
:1022400001210320FEF7BCFF002232210320FEF70C
:10225000B7FF002246210320FEF7B2FF00224621ED
:102260000320FEF7ADFF0DE1002201210320FEF760
:10227000A7FF002232210320FEF7A2FF0022462101
:102280000320FEF79DFF00224F210320FEF798FF59
:10229000F8E00120FFF7FBFB9A48FFF780FC0021E4
:1022A0000120FFF762FC9848FFF779FC0DF11B0055
:1022B000FFF7DAFC9DF81B30642BF7D0FA20FFF70C
:1022C0008BF89DF81B30312B14D000220221032003
:1022D000FEF776FF002232210320FEF771FF002275
:1022E00044210320FEF76CFF002246210320FEF765
:1022F00067FFC7E0002201210320FEF761FF0120F4
:10230000FFF7C5FB8148FFF74AFC00210120FFF7DA
:102310002CFC7F48FFF743FC0DF11B00FFF7A4FCEA
:102320009DF81B30642BF7D0C820FFF755F89DF8B7
:102330001B30312B0FD0002232210320FEF740FF4B
:10234000002244210320FEF73BFF00224621032008
:10235000FEF736FF96E0002232210320FEF730FF21
:10236000002244210320FEF72BFF00224F210320EF
:10237000FEF726FF86E00120FFF789FB6148FFF7A3
:102380000EFC00210120FFF7F0FB5F48FFF707FC80
:102390000DF11B00FFF768FC9DF81B30642BF7D094
:1023A000FA20FFF719F89DF81B30312B14D00022CA
:1023B00002210320FEF704FF002232210320FEF752
:1023C000FFFE00224C210320FEF7FAFE00224621E8
:1023D0000320FEF7F5FE55E0002201210320FEF761
:1023E000EFFE0120FFF753FB4A48FFF7D8FB00211F
:1023F0000120FFF7BAFB4848FFF7D1FB0DF11B00A6
:10240000FFF732FC9DF81B30642BF7D0C820FEF795
:10241000E3FF9DF81B30312B0FD000223221032027
:10242000FEF7CEFE00224C210320FEF7C9FE00225B
:1024300046210320FEF7C4FE24E0002232210320BF
:10244000FEF7BEFE00224C210320FEF7B9FE00225B
:102450004F210320FEF7B4FE14E00120FFF717FB25
:102460002E48FFF79CFB0DF11B00FFF7FDFB9DF8CD
:102470001B30642BF7D0FA20FEF7AEFF9DF81B301F
:10248000312B55D00120FFF702FB2548FFF787FBD2
:1024900000210120FFF769FB2248FFF780FB09219B
:1024A0000020FFF762FB2048FFF779FB092101209C
:1024B000FFF75BFB1D48FFF772FB0DF11B00FFF7F9
:1024C000D3FB9DF81B30642BF7D0FA20FEF784FF76
:1024D0009DF81B30313B032BD4D801A252F823F0D6
:1024E000791E0008B52100085B240008BD250008FE
:1024F000C43A0008CC3A0008603B0008003B0008E2
:102500000C3B0008E83A0008F43A0008183B0008C1
:10251000243B0008683B0008743B0008803B00082F
:102520009C3A0008A43A0008AC3A0008B83A0008FF
:102530000120FFF7ACFA5A48FFF731FB00210120D8
:10254000FFF713FB5748FFF72AFB0DF11B00FFF7BE
:102550008BFB9DF81B30642BF7D0FA20FEF73CFF75
:102560009DF81B30312B14D0002201210320FEF7EF
:1025700027FE002233210320FEF722FE0022442101
:102580000320FEF71DFE002246210320FEF718FE61
:1025900078E7002201210320FEF712FE00223321FA
:1025A0000320FEF70DFE002244210320FEF708FE63
:1025B00000224F210320FEF703FE63E70120FFF70F
:1025C00066FA3948FFF7EBFA00210120FFF7CDFA50
:1025D0003648FFF7E4FA0DF11B00FFF745FB9DF8C5
:1025E0001B30642BF7D0FA20FEF7F6FE9DF81B3067
:1025F000312B14D0002202210320FEF7E1FD00223E
:1026000034210320FEF7DCFD002244210320FEF7E5
:10261000D7FD002246210320FEF7D2FD32E700223B
:1026200001210320FEF7CCFD0120FFF730FA1C4802
:10263000FFF7B5FA00210120FFF797FA1948FFF7D5
:10264000AEFA0DF11B00FFF70FFB9DF81B30642B5A
:10265000F7D0C820FEF7C0FE9DF81B30312B0FD0FD
:10266000002234210320FEF7ABFD00224421032089
:10267000FEF7A6FD002246210320FEF7A1FD01E79B
:10268000002234210320FEF79BFD00224421032079
:10269000FEF796FD00224F210320FEF791FDF1E6A3
:1026A000183B0008243B0008E83A0008F43A000808
:1026B00070B594B000240194204B1A6C42F0805203
:1026C0001A641B6C03F080530193019B02941C4B12
:1026D0001A6842F440421A601B6803F440430293B4
:1026E000029B0123089309934FF480030F9319234E
:1026F00010934FF4A8731193042612960723139393
:1027000002250E9508A8FDF759FF0F2303930495A2
:1027100005944FF4805306930794294603A8FEF7C7
:10272000B5F9FEF7DFFA074BA3FB00308009FDF790
:1027300011FF3046FDF724FF14B070BD0038024091
:1027400000700040D34D621008B5FDF77FFEFFF723
:10275000AFFFFEF71FFC08BD7047000081F000418D
:1027600002E000BF83F0004330B54FEA41044FEA76
:10277000430594EA050F08BF90EA020F1FBF54EA11
:10278000000C55EA020C7FEA645C7FEA655C00F0AD
:10279000E2804FEA5454D4EB5555B8BF6D420CDD7E
:1027A0002C4480EA020281EA030382EA000083EA01
:1027B000010180EA020281EA0303362D88BF30BDA1
:1027C00011F0004F4FEA01314FF4801C4CEA1131F7
:1027D00002D0404261EB410113F0004F4FEA033356
:1027E0004CEA133302D0524263EB430394EA050FE1
:1027F00000F0A780A4F10104D5F1200E0DDB02FA50
:102800000EFC22FA05F2801841F1000103FA0EF2E3
:10281000801843FA05F359410EE0A5F120050EF1A9
:10282000200E012A03FA0EFC28BF4CF0020C43FADA
:1028300005F3C01851EBE37101F0004507D54FF0E7
:10284000000EDCF1000C7EEB00006EEB0101B1F537
:10285000801F1BD3B1F5001F0CD349085FEA30007D
:102860004FEA3C0C04F101044FEA445212F5800F88
:1028700080F09A80BCF1004F08BF5FEA500C50F125
:10288000000041EB045141EA050130BD5FEA4C0C08
:10289000404141EB010111F4801FA4F10104E9D191
:1028A00091F0000F04BF01460020B1FA81F308BF88
:1028B0002033A3F10B03B3F120020CDA0C3208DD54
:1028C00002F1140CC2F10C0201FA0CF021FA02F12F
:1028D0000CE002F11402D8BFC2F1200C01FA02F19F
:1028E00020FA0CFCDCBF41EA0C019040E41AA2BFC4
:1028F00001EB0451294330BD6FEA04041F3C1CDA8C
:102900000C340EDC04F11404C4F1200220FA04F0AB
:1029100001FA02F340EA030021FA04F345EA030155
:1029200030BDC4F10C04C4F1200220FA02F001FA17
:1029300004F340EA0300294630BD21FA04F0294699
:1029400030BD94F0000F83F4801306BF81F4801132
:102950000134013D4EE77FEA645C18BF7FEA655CA5
:1029600029D094EA050F08BF90EA020F05D054EA77
:10297000000C04BF1946104630BD91EA030F1EBF7C
:102980000021002030BD5FEA545C05D14000494180
:1029900028BF41F0004130BD14F580043CBF01F573
:1029A000801130BD01F0004545F0FE4141F4700159
:1029B0004FF0000030BD7FEA645C1ABF1946104634
:1029C0007FEA655C1CBF0B46024650EA013406BF35
:1029D00052EA033591EA030F41F4002130BD00BFF4
:1029E00090F0000F04BF0021704730B54FF48064B1
:1029F00004F132044FF000054FF0000150E700BF32
:102A000090F0000F04BF0021704730B54FF4806490
:102A100004F1320410F0004548BF40424FF000017D
:102A20003EE700BF42004FEAE2014FEA31014FEAC0
:102A300002701FBF12F07F4393F07F4F81F060510F
:102A4000704732F07F4208BF704793F07F4F04BF5A
:102A500041F40021704730B54FF4607401F0004537
:102A600021F000411CE700BF50EA010208BF704797
:102A700030B54FF000050AE050EA010208BF704788
:102A800030B511F0004502D5404261EB41014FF4F1
:102A9000806404F132045FEA915C3FF4D8AE4FF0F9
:102AA00003025FEADC0C18BF03325FEADC0C18BFDC
:102AB000033202EBDC02C2F1200300FA03FC20FA2D
:102AC00002F001FA03FE40EA0E0021FA02F114447A
:102AD000BDE600BF70B54FF0FF0C4CF4E06C1CEA93
:102AE00011541DBF1CEA135594EA0C0F95EA0C0F04
:102AF00000F0DEF82C4481EA030621EA4C5123EA77
:102B00004C5350EA013518BF52EA033541F48011A5
:102B100043F4801338D0A0FB02CE4FF00005E1FB58
:102B200002E506F00042E0FB03E54FF00006E1FBA2
:102B300003569CF0000F18BF4EF0010EA4F1FF04E5
:102B4000B6F5007F64F5407404D25FEA4E0E6D4125
:102B500046EB060642EAC62141EA55514FEAC52036
:102B600040EA5E504FEACE2EB4F1FD0C88BFBCF5B2
:102B7000E06F1ED8BEF1004F08BF5FEA500E50F163
:102B8000000041EB045170BD06F0004646EA010129
:102B900040EA020081EA0301B4EB5C04C2BFD4EB5B
:102BA0000C0541EA045170BD41F480114FF0000E54
:102BB000013C00F3AB8014F1360FDEBF002001F0C2
:102BC000004170BDC4F10004203C35DA0C341BDC3C
:102BD00004F11404C4F1200500FA05F320FA04F00E
:102BE00001FA05F240EA020001F0004221F0004142
:102BF00010EBD37021FA04F642EB06015EEA430EB5
:102C000008BF20EAD37070BDC4F10C04C4F12005E4
:102C100000FA04F320FA05F001FA04F240EA020097
:102C200001F0004110EBD37041F100015EEA430E68
:102C300008BF20EAD37070BDC4F1200500FA05F288
:102C40004EEA020E20FA04F301FA05F243EA020307
:102C500021FA04F001F0004121FA04F220EA020016
:102C600000EBD3705EEA430E08BF20EAD37070BD5C
:102C700094F0000F0FD101F00046400041EB01013C
:102C800011F4801F08BF013CF7D041EA060195F01E
:102C9000000F18BF704703F00046520043EB0303D8
:102CA00013F4801F08BF013DF7D043EA06037047C5
:102CB00094EA0C0F0CEA135518BF95EA0C0F0CD0D0
:102CC00050EA410618BF52EA4306D1D181EA030116
:102CD00001F000414FF0000070BD50EA410606BF10
:102CE0001046194652EA430619D094EA0C0F02D155
:102CF00050EA013613D195EA0C0F05D152EA03369A
:102D00001CBF104619460AD181EA030101F00041B7
:102D100041F0FE4141F470014FF0000070BD41F000
:102D2000FE4141F4780170BD70B54FF0FF0C4CF4DA
:102D3000E06C1CEA11541DBF1CEA135594EA0C0FF9
:102D400095EA0C0F00F0A7F8A4EB050481EA030E46
:102D500052EA03354FEA013100F088804FEA03332D
:102D60004FF0805545EA131343EA12634FEA0222FB
:102D700045EA111545EA10654FEA00260EF00041BC
:102D80009D4208BF964244F1FD0404F5407402D20E
:102D90005B084FEA3202B61A65EB03055B084FEA9F
:102DA00032024FF480104FF4002CB6EB020E75EB9C
:102DB000030E22BFB61A754640EA0C005B084FEAC4
:102DC0003202B6EB020E75EB030E22BFB61A754641
:102DD00040EA5C005B084FEA3202B6EB020E75EB8C
:102DE000030E22BFB61A754640EA9C005B084FEA04
:102DF0003202B6EB020E75EB030E22BFB61A754611
:102E000040EADC0055EA060E18D04FEA051545EAFF
:102E100016754FEA06164FEAC30343EA52734FEAA8
:102E2000C2025FEA1C1CC0D111F4801F0BD141EA21
:102E300000014FF000004FF0004CB6E711F4801F86
:102E400004BF01430020B4F1FD0C88BFBCF5E06F66
:102E50003FF6AFAEB5EB030C04BFB6EB020C5FEA76
:102E6000500C50F1000041EB045170BD0EF0004ECB
:102E70004EEA113114EB5C04C2BFD4EB0C0541EAFD
:102E8000045170BD41F480114FF0000E013C90E6FA
:102E900045EA060E8DE60CEA135594EA0C0F08BFBE
:102EA00095EA0C0F3FF43BAF94EA0C0F0AD150EABD
:102EB00001347FF434AF95EA0C0F7FF425AF104650
:102EC00019462CE795EA0C0F06D152EA03353FF478
:102ED000FDAE1046194622E750EA410618BF52EAF5
:102EE00043067FF4C5AE50EA41047FF40DAF52EAC9
:102EF00043057FF4EBAE12E74A0011D212F500123F
:102F000011D20DD56FF47873B3EB62520ED44FEA41
:102F1000C12343F0004343EA505323FA02F07047C1
:102F20004FF00000704750EA013002D14FF0FF30FF
:102F300070474FF000007047014B1868704700BFA2
:102F400010000020034613F8012B002AFBD1181AA9
:102F50000138704730B5141E05469BB0184605DA97
:102F60008B232B604FF0FF301BB030BD4FF402734A
:102F7000ADF80C3014BF04F1FF33234602930593E0
:102F80004FF6FF7300910491ADF80E3002461E9B80
:102F90006946284600F072F8431CBCBF8B232B60A7
:102FA000002CE1D0009B00221A70DDE707B50093EA
:102FB00013460A46014603480068FFF7CBFF03B0FB
:102FC0005DF804FB100000202DE9F0478E689E425A
:102FD00082460C469046994637D88A8912F4906FFB
:102FE00031D0256809696F1A6569022305EB45052B
:102FF00095FBF3F509F101033B449D4238BF1D46A3
:10300000530530D5294600F07DFB064650B90C2308
:10301000CAF80030A38943F04003A3814FF0FF308A
:10302000BDE8F0873A46216900F0FAFAA38923F453
:10303000906343F08003A381266165613E44ED1BEC
:103040002660A5604E464E4500D94E463246414662
:10305000206800F0F0FAA3689B1BA36023681E445D
:1030600026600020DCE72A4600F0A6FB0646002882
:10307000E2D12169504600F0F7FAC8E72DE9F04F98
:103080009DB0804603938B891D060C4616460FD5CE
:103090000B696BB9402100F035FB2060206128B935
:1030A0000C23C8F800304FF0FF30C7E040236361C5
:1030B0000023099320238DF8293030238DF82A30FE
:1030C0004FF0010B37463D4615F8013B0BB1252B60
:1030D0003ED1B7EB060A0BD0534632462146404656
:1030E000FFF772FF013000F0A480099B534409935D
:1030F0003B78002B00F09D8000234FF0FF32CDE99C
:103100000523049307938DF853301A932F46052215
:1031100017F8011B4F4800F033FA049BD0B9D906C9
:1031200044BF20228DF853201A0744BF2B228DF86C
:1031300053202A782A2A15D0079A2F4600200A25DC
:10314000394611F8013B303B092B4DD9B8B10FE09E
:103150002F46B8E73F4A801A0BFA00F01843049054
:103160003D46D3E7039A111D12680391002A01DB43
:10317000079204E0524243F00203079204933B7823
:103180002E2B0CD17B782A2B33D1039B1A1D1B6865
:103190000392002BB8BF4FF0FF33023705932E4D3B
:1031A00039780322284600F0EBF938B14023401B60
:1031B00003FA00F0049B034301370493397827484E
:1031C0008DF8281006227E1C00F0DAF9002838D08D
:1031D000234B13BB039B073323F0070308330393ED
:1031E000099B4B4409936DE705FB023201200F4612
:1031F000A6E700230137059319460A25384610F83B
:10320000012B303A092A03D9002BC8D00591C6E713
:1032100005FB012101230746F0E703AB009322469B
:10322000104B04A94046AFF30080B0F1FF3F814648
:10323000D6D1A3895B063FF536AF09981DB0BDE82E
:10324000F08F03AB00932246064B04A9404600F0E2
:1032500081F8EAE7883B00088E3B0008923B0008B3
:1032600000000000C92F00082DE9F04791461F46D5
:103270008A680B69DDF820809342B8BF1346C9F80D
:10328000003091F8432006460C4612B10133C9F8CC
:1032900000302368990642BFD9F800300233C9F8DC
:1032A0000030256815F0060507D104F1190AE36816
:1032B000D9F800209B1AAB4228DC94F843302268EE
:1032C000003318BF012392062DD404F1430239467E
:1032D0003046C047013020D02368E568D9F8002087
:1032E00003F00603042B08BFAD1AA36822690CBFC4
:1032F00025EAE57500259342C4BF9B1AED184FF0EF
:1033000000091A344D451AD1002008E00123524625
:1033100039463046C047013003D14FF0FF30BDE899
:10332000F0870135C3E7E1185A1C302081F84300CB
:10333000224494F8451082F843100233C5E7012374
:10334000224639463046C0470130E6D009F101092E
:10335000D8E700002DE9F04301F1430C0C46097E4B
:1033600085B06E291746064698460C9A00F0B38041
:1033700022D8632936D00AD8002900F0B98058290C
:1033800000F0838004F1420584F8421032E06429A1
:1033900001D06929F6D120681368050603F10401FC
:1033A0002AD51B681160002B03DA2D225B4284F8BA
:1033B00043206F480A2239E0732900F09D8008D825
:1033C0006F2920D07029DDD1236843F020032360CA
:1033D00003E0752917D07829D4D1782384F84530B3
:1033E000644855E01368191D1B68116004F142051B
:1033F00084F8423001238CE01B68116010F0400F0C
:1034000018BF1BB2CFE713682568181D1060280687
:1034100001D51B6802E06806FBD51B8854486F295C
:1034200014BF0A220822002184F843106568A560B1
:10343000002DC0F29580216821F004012160002B4D
:103440003DD1002D40F08E806546082A0BD12368BF
:10345000DB0708D5236962689A42DEBF302305F88E
:10346000013C05F1FF35ACEB05032361CDF800808D
:103470003B4603AA21463046FFF7F6FE01304DD108
:103480004FF0FF3005B0BDE8F083394884F84510AF
:10349000136821681D1D1B6815600A060BD5CA0735
:1034A00044BF41F0200121601BB9226822F02002B4
:1034B00022601022B7E74D0648BF9BB2EFE7654692
:1034C000B3FBF2F102FB1133C35C05F8013D0B467F
:1034D0000029F5D1B9E7136825686169181D1060E6
:1034E00028061B6801D5196002E06A06FBD5198021
:1034F000002323616546B9E71368191D11601D6833
:1035000062680021284600F03BF808B1401B60606B
:1035100063682361002384F84330A7E723692A46C0
:1035200039463046C0470130AAD023689B0713D4E0
:10353000E068039B9842B8BF1846A3E701234A46B8
:1035400039463046C04701309AD00135E368039AC6
:103550009B1AAB42F2DCEBE7002504F11909F5E711
:10356000002BACD1037884F8423004F142056CE7BB
:10357000993B0008AA3B0008000000000000000082
:1035800001F0FF01102A2BDB10F0070F08D010F814
:10359000013B013A8B422DD010F0070F42B3F6D118
:1035A000F0B441EA012141EA014122F007047FF031
:1035B00000070023F0E80256083C85EA010586EA88
:1035C000010685FA47F5A3FA87F586FA47F6A5FAC4
:1035D00087F68EB9EED1F0BC01F0FF0102F00702D0
:1035E00032B110F8013B013A83EA010313B1F8D17B
:1035F0000020704701387047002D06BF354603385C
:10360000073815F0010F07D1013015F4807F02BF94
:10361000013015F4C03F0130F0BC0138704700BFE5
:1036200010B5431E0A44914200D110BD11F8014B60
:1036300003F8014FF7E7884210B501EB020307D802
:10364000421E99420AD011F8014B02F8014FF8E7E7
:103650008342F5D98118D21AD34200D110BD13F894
:10366000014D01F8014DF7E738B50546002945D071
:1036700051F8043C0C1F002BB8BFE41800F0D2F83E
:103680001F4A1368104633B9636014602846BDE8CA
:10369000384000F0C8B8A3420CD9216862189342A0
:1036A00004BF1A685B68636004BF5218226004603C
:1036B000ECE713465A680AB1A242FAD919685818B9
:1036C000A0420BD120680144581882421960DDD114
:1036D000106852685A6001441960D7E702D90C2378
:1036E0002B60D3E7206821188A4204BF1168526812
:1036F000626004BF091821605C60C7E738BD00BF85
:103700001401002070B5CD1C25F0030508350C2DE3
:1037100038BF0C25002D064601DBA94203D90C2336
:103720003360002070BD00F07DF8214A1468214606
:1037300091B9204C23681BB9304600F063F8206033
:103740002946304600F05EF8431C24D10C23336038
:10375000304600F068F8E4E70B685B1B18D40B2BCD
:103760000FD90B60CD50CC18304600F05CF804F156
:103770000B00231D20F00700C31AD3D05A42E25099
:10378000D0E78C424B6816BF636013600C46EBE7D2
:103790000C464968CCE7C41C24F00304A04205D0C1
:1037A000211A304600F02EF80130CFD02560DBE73B
:1037B0001401002018010020F8B5074614460E46F3
:1037C00021B91146BDE8F840FFF79CBF22B9FFF7C9
:1037D0004BFF25462846F8BD00F026F8A0420FD240
:1037E00021463846FFF78EFF05460028F2D03146C5
:1037F0002246FFF715FF31463846FFF735FFE9E768
:103800003546E7E738B5064C0023054608462360F1
:10381000FDF77AFA431C02D1236803B12B6038BD4F
:10382000200100207047704751F8043C181F002BFE
:10383000BCBF0B58C01870472E2E2F737973746558
:103840006D2F7372632F73746D333266342D68611C
:103850006C2F73746D3332663478785F68616C5F97
:10386000636F727465782E63000000000000000032
:103870000102030401020304060708092E2E2F7318
:10388000797374656D2F7372632F73746D33326641
:10389000342D68616C2F73746D3332663478785FC1
:1038A00068616C5F7263632E6300000061626F7217
:1038B0007428292C2065786974696E672E2E2E0075
:1038C0006173736572745F706172616D282920661F
:1038D00061696C65643A2066696C652022257322F3
:1038E0002C206C696E652025640A000053746163A6
:1038F0006B206672616D653A0A000000205230202C
:103900003D2020253038580A000000002052312088
:103910003D2020253038580A000000002052322077
:103920003D2020253038580A000000002052332066
:103930003D2020253038580A000000002052313246
:10394000203D20253038580A00000000204C52202D
:103950003D2020253038580A000000002050432028
:103960003D2020253038580A0000000020505352D6
:10397000203D20253038580A000000004653522FC1
:103980004641523A0A0000002043465352203D204F
:1039900020253038580A00002048465352203D2048
:1039A00020253038580A00002044465352203D203C
:1039B00020253038580A00002041465352203D202F
:1039C00020253038580A0000204D4D464152203DF8
:1039D00020253038580A00002042464152203D2020
:1039E00020253038580A00004D6973630A00000032
:1039F000204C522F4558435F52455455524E3D205E
:103A0000253038580A0000005B48617264466175D1
:103A10006C745D0A000000005B4275734661756C52
:103A2000745D0A005B55736167654661756C745D12
:103A30000A00000000000000000000000102030472
:103A4000060708093738392F3435362A3132332DF5
:103A500023303D2B0101010105060708000000008D
:103A60000708090A50617373776F726420636F727D
:103A7000726563740000000057726F6E67205061BA
:103A80007373776F72640000456E746572205061C5
:103A90007373776F72643A2000000000312D524F2B
:103AA0004F4D3100322D524F4F4D3200332D4B6967
:103AB000746368656E000000342D4761726167654C
:103AC00000000000312D46616E000000322D446F71
:103AD0006F720000332D54656D700000342D486501
:103AE0006174657200000000312D4D616E75616C6E
:103AF00000000000322D4175746F6D6174696300C0
:103B0000312D46616E2D4F4E00000000322D466172
:103B10006E2D4F6666000000312D446F6F722D4F81
:103B200070656E00322D446F6F722D436C6F73653C
:103B30000000000054656D70657261747572653ABD
:103B400020000000312D4865617465722D4F4E00D4
:103B5000322D4865617465722D4F66660000000065
:103B6000332D4C616D700000312D4C616D702D4F07
:103B70004E000000322D4C616D702D4F66660000C6
:103B8000312D446F6F720000232D302B2000686CA4
:103B90004C00656667454647003031323334353670
:103BA00037383941424344454600303132333435A9
:0B3BB0003637383961626364656600D7
:103BBC007856341280000020000000000024F4002D
:103BCC0014000020000000000000000000000000B5
:103BDC0000000000000000000000000000000000D9
:103BEC0000000000000000000000000000000000C9
:103BFC0000000000000000000000000000000000B9
:103C0C0000000000000000000000000000000000A8
:103C1C000000000000000000000000000000000098
:083C2C000000000032547698FC
:040000050800019559
:00000001FF
